{
  "_format": "hh-sol-artifact-1",
  "contractName": "Music",
  "sourceName": "contracts/Music.sol",
  "abi": [
    {
      "inputs": [],
      "stateMutability": "nonpayable",
      "type": "constructor"
    },
    {
      "inputs": [
        {
          "internalType": "address",
          "name": "",
          "type": "address"
        }
      ],
      "name": "artist",
      "outputs": [
        {
          "internalType": "string",
          "name": "artistName",
          "type": "string"
        },
        {
          "internalType": "address",
          "name": "artistAddress",
          "type": "address"
        }
      ],
      "stateMutability": "view",
      "type": "function"
    },
    {
      "inputs": [],
      "name": "artistLogin",
      "outputs": [
        {
          "components": [
            {
              "internalType": "string",
              "name": "artistName",
              "type": "string"
            },
            {
              "internalType": "uint256[]",
              "name": "songsUploaded",
              "type": "uint256[]"
            },
            {
              "internalType": "address",
              "name": "artistAddress",
              "type": "address"
            }
          ],
          "internalType": "struct Music.Artist",
          "name": "",
          "type": "tuple"
        }
      ],
      "stateMutability": "view",
      "type": "function"
    },
    {
      "inputs": [
        {
          "internalType": "string",
          "name": "_name",
          "type": "string"
        }
      ],
      "name": "artistRegister",
      "outputs": [],
      "stateMutability": "payable",
      "type": "function"
    },
    {
      "inputs": [],
      "name": "owner",
      "outputs": [
        {
          "internalType": "address",
          "name": "",
          "type": "address"
        }
      ],
      "stateMutability": "view",
      "type": "function"
    },
    {
      "inputs": [
        {
          "internalType": "address",
          "name": "",
          "type": "address"
        }
      ],
      "name": "user",
      "outputs": [
        {
          "internalType": "string",
          "name": "userName",
          "type": "string"
        },
        {
          "internalType": "address",
          "name": "userAddress",
          "type": "address"
        }
      ],
      "stateMutability": "view",
      "type": "function"
    },
    {
      "inputs": [],
      "name": "userLogin",
      "outputs": [
        {
          "components": [
            {
              "internalType": "string",
              "name": "userName",
              "type": "string"
            },
            {
              "internalType": "address",
              "name": "userAddress",
              "type": "address"
            }
          ],
          "internalType": "struct Music.User",
          "name": "",
          "type": "tuple"
        }
      ],
      "stateMutability": "view",
      "type": "function"
    },
    {
      "inputs": [
        {
          "internalType": "string",
          "name": "_name",
          "type": "string"
        }
      ],
      "name": "userRegister",
      "outputs": [],
      "stateMutability": "payable",
      "type": "function"
    }
  ],
  "bytecode": "0x608060405234801561001057600080fd5b50336000806101000a81548173ffffffffffffffffffffffffffffffffffffffff021916908373ffffffffffffffffffffffffffffffffffffffff160217905550611133806100606000396000f3fe6080604052600436106100705760003560e01c806381e7e20e1161004e57806381e7e20e146100fa578063881d97dc146101385780638da5cb5b14610154578063b0cfefb11461017f57610070565b806343cb94d1146100755780634790a62d1461009157806378b330ee146100bc575b600080fd5b61008f600480360381019061008a9190610a79565b6101aa565b005b34801561009d57600080fd5b506100a66102e9565b6040516100b39190610bbf565b60405180910390f35b3480156100c857600080fd5b506100e360048036038101906100de9190610c0d565b610428565b6040516100f1929190610c93565b60405180910390f35b34801561010657600080fd5b50610121600480360381019061011c9190610c0d565b6104f4565b60405161012f929190610c93565b60405180910390f35b610152600480360381019061014d9190610a79565b6105c0565b005b34801561016057600080fd5b50610169610693565b6040516101769190610cc3565b60405180910390f35b34801561018b57600080fd5b506101946106b7565b6040516101a19190610dfd565b60405180910390f35b60006040518060600160405280838152602001600067ffffffffffffffff8111156101d8576101d761094e565b5b6040519080825280602002602001820160405280156102065781602001602082028036833780820191505090505b5081526020013373ffffffffffffffffffffffffffffffffffffffff16815250905080600160003373ffffffffffffffffffffffffffffffffffffffff1673ffffffffffffffffffffffffffffffffffffffff168152602001908152602001600020600082015181600001908161027d919061102b565b50602082015181600101908051906020019061029a92919061084e565b5060408201518160020160006101000a81548173ffffffffffffffffffffffffffffffffffffffff021916908373ffffffffffffffffffffffffffffffffffffffff1602179055509050505050565b6102f161089b565b600260003373ffffffffffffffffffffffffffffffffffffffff1673ffffffffffffffffffffffffffffffffffffffff16815260200190815260200160002060405180604001604052908160008201805461034b90610e4e565b80601f016020809104026020016040519081016040528092919081815260200182805461037790610e4e565b80156103c45780601f10610399576101008083540402835291602001916103c4565b820191906000526020600020905b8154815290600101906020018083116103a757829003601f168201915b505050505081526020016001820160009054906101000a900473ffffffffffffffffffffffffffffffffffffffff1673ffffffffffffffffffffffffffffffffffffffff1673ffffffffffffffffffffffffffffffffffffffff1681525050905090565b600160205280600052604060002060009150905080600001805461044b90610e4e565b80601f016020809104026020016040519081016040528092919081815260200182805461047790610e4e565b80156104c45780601f10610499576101008083540402835291602001916104c4565b820191906000526020600020905b8154815290600101906020018083116104a757829003601f168201915b5050505050908060020160009054906101000a900473ffffffffffffffffffffffffffffffffffffffff16905082565b600260205280600052604060002060009150905080600001805461051790610e4e565b80601f016020809104026020016040519081016040528092919081815260200182805461054390610e4e565b80156105905780601f1061056557610100808354040283529160200191610590565b820191906000526020600020905b81548152906001019060200180831161057357829003601f168201915b5050505050908060010160009054906101000a900473ffffffffffffffffffffffffffffffffffffffff16905082565b600060405180604001604052808381526020013373ffffffffffffffffffffffffffffffffffffffff16815250905080600260003373ffffffffffffffffffffffffffffffffffffffff1673ffffffffffffffffffffffffffffffffffffffff1681526020019081526020016000206000820151816000019081610644919061102b565b5060208201518160010160006101000a81548173ffffffffffffffffffffffffffffffffffffffff021916908373ffffffffffffffffffffffffffffffffffffffff1602179055509050505050565b60008054906101000a900473ffffffffffffffffffffffffffffffffffffffff1681565b6106bf6108cb565b600160003373ffffffffffffffffffffffffffffffffffffffff1673ffffffffffffffffffffffffffffffffffffffff16815260200190815260200160002060405180606001604052908160008201805461071990610e4e565b80601f016020809104026020016040519081016040528092919081815260200182805461074590610e4e565b80156107925780601f1061076757610100808354040283529160200191610792565b820191906000526020600020905b81548152906001019060200180831161077557829003601f168201915b50505050508152602001600182018054806020026020016040519081016040528092919081815260200182805480156107ea57602002820191906000526020600020905b8154815260200190600101908083116107d6575b505050505081526020016002820160009054906101000a900473ffffffffffffffffffffffffffffffffffffffff1673ffffffffffffffffffffffffffffffffffffffff1673ffffffffffffffffffffffffffffffffffffffff1681525050905090565b82805482825590600052602060002090810192821561088a579160200282015b8281111561088957825182559160200191906001019061086e565b5b5090506108979190610902565b5090565b604051806040016040528060608152602001600073ffffffffffffffffffffffffffffffffffffffff1681525090565b60405180606001604052806060815260200160608152602001600073ffffffffffffffffffffffffffffffffffffffff1681525090565b5b8082111561091b576000816000905550600101610903565b5090565b6000604051905090565b600080fd5b600080fd5b600080fd5b600080fd5b6000601f19601f8301169050919050565b7f4e487b7100000000000000000000000000000000000000000000000000000000600052604160045260246000fd5b6109868261093d565b810181811067ffffffffffffffff821117156109a5576109a461094e565b5b80604052505050565b60006109b861091f565b90506109c4828261097d565b919050565b600067ffffffffffffffff8211156109e4576109e361094e565b5b6109ed8261093d565b9050602081019050919050565b82818337600083830152505050565b6000610a1c610a17846109c9565b6109ae565b905082815260208101848484011115610a3857610a37610938565b5b610a438482856109fa565b509392505050565b600082601f830112610a6057610a5f610933565b5b8135610a70848260208601610a09565b91505092915050565b600060208284031215610a8f57610a8e610929565b5b600082013567ffffffffffffffff811115610aad57610aac61092e565b5b610ab984828501610a4b565b91505092915050565b600081519050919050565b600082825260208201905092915050565b60005b83811015610afc578082015181840152602081019050610ae1565b60008484015250505050565b6000610b1382610ac2565b610b1d8185610acd565b9350610b2d818560208601610ade565b610b368161093d565b840191505092915050565b600073ffffffffffffffffffffffffffffffffffffffff82169050919050565b6000610b6c82610b41565b9050919050565b610b7c81610b61565b82525050565b60006040830160008301518482036000860152610b9f8282610b08565b9150506020830151610bb46020860182610b73565b508091505092915050565b60006020820190508181036000830152610bd98184610b82565b905092915050565b610bea81610b61565b8114610bf557600080fd5b50565b600081359050610c0781610be1565b92915050565b600060208284031215610c2357610c22610929565b5b6000610c3184828501610bf8565b91505092915050565b600082825260208201905092915050565b6000610c5682610ac2565b610c608185610c3a565b9350610c70818560208601610ade565b610c798161093d565b840191505092915050565b610c8d81610b61565b82525050565b60006040820190508181036000830152610cad8185610c4b565b9050610cbc6020830184610c84565b9392505050565b6000602082019050610cd86000830184610c84565b92915050565b600081519050919050565b600082825260208201905092915050565b6000819050602082019050919050565b6000819050919050565b610d1d81610d0a565b82525050565b6000610d2f8383610d14565b60208301905092915050565b6000602082019050919050565b6000610d5382610cde565b610d5d8185610ce9565b9350610d6883610cfa565b8060005b83811015610d99578151610d808882610d23565b9750610d8b83610d3b565b925050600181019050610d6c565b5085935050505092915050565b60006060830160008301518482036000860152610dc38282610b08565b91505060208301518482036020860152610ddd8282610d48565b9150506040830151610df26040860182610b73565b508091505092915050565b60006020820190508181036000830152610e178184610da6565b905092915050565b7f4e487b7100000000000000000000000000000000000000000000000000000000600052602260045260246000fd5b60006002820490506001821680610e6657607f821691505b602082108103610e7957610e78610e1f565b5b50919050565b60008190508160005260206000209050919050565b60006020601f8301049050919050565b600082821b905092915050565b600060088302610ee17fffffffffffffffffffffffffffffffffffffffffffffffffffffffffffffffff82610ea4565b610eeb8683610ea4565b95508019841693508086168417925050509392505050565b6000819050919050565b6000610f28610f23610f1e84610d0a565b610f03565b610d0a565b9050919050565b6000819050919050565b610f4283610f0d565b610f56610f4e82610f2f565b848454610eb1565b825550505050565b600090565b610f6b610f5e565b610f76818484610f39565b505050565b5b81811015610f9a57610f8f600082610f63565b600181019050610f7c565b5050565b601f821115610fdf57610fb081610e7f565b610fb984610e94565b81016020851015610fc8578190505b610fdc610fd485610e94565b830182610f7b565b50505b505050565b600082821c905092915050565b600061100260001984600802610fe4565b1980831691505092915050565b600061101b8383610ff1565b9150826002028217905092915050565b61103482610ac2565b67ffffffffffffffff81111561104d5761104c61094e565b5b6110578254610e4e565b611062828285610f9e565b600060209050601f8311600181146110955760008415611083578287015190505b61108d858261100f565b8655506110f5565b601f1984166110a386610e7f565b60005b828110156110cb578489015182556001820191506020850194506020810190506110a6565b868310156110e857848901516110e4601f891682610ff1565b8355505b6001600288020188555050505b50505050505056fea264697066735822122062d29588fe856326d9ea7b65dd0963beaba519c0828b9eaea9ed82c65c339e6364736f6c63430008110033",
  "linkReferences": {},
  "deployedLinkReferences": {}
}