{
  "_format": "hh-sol-artifact-1",
  "contractName": "NFT",
  "sourceName": "contracts/NFT.sol",
  "abi": [
    {
      "inputs": [],
      "stateMutability": "nonpayable",
      "type": "constructor"
    },
    {
      "anonymous": false,
      "inputs": [
        {
          "indexed": true,
          "internalType": "address",
          "name": "owner",
          "type": "address"
        },
        {
          "indexed": true,
          "internalType": "address",
          "name": "approved",
          "type": "address"
        },
        {
          "indexed": true,
          "internalType": "uint256",
          "name": "tokenId",
          "type": "uint256"
        }
      ],
      "name": "Approval",
      "type": "event"
    },
    {
      "anonymous": false,
      "inputs": [
        {
          "indexed": true,
          "internalType": "address",
          "name": "owner",
          "type": "address"
        },
        {
          "indexed": true,
          "internalType": "address",
          "name": "operator",
          "type": "address"
        },
        {
          "indexed": false,
          "internalType": "bool",
          "name": "approved",
          "type": "bool"
        }
      ],
      "name": "ApprovalForAll",
      "type": "event"
    },
    {
      "anonymous": false,
      "inputs": [
        {
          "indexed": true,
          "internalType": "address",
          "name": "from",
          "type": "address"
        },
        {
          "indexed": true,
          "internalType": "address",
          "name": "to",
          "type": "address"
        },
        {
          "indexed": true,
          "internalType": "uint256",
          "name": "tokenId",
          "type": "uint256"
        }
      ],
      "name": "Transfer",
      "type": "event"
    },
    {
      "inputs": [
        {
          "internalType": "address",
          "name": "to",
          "type": "address"
        },
        {
          "internalType": "uint256",
          "name": "tokenId",
          "type": "uint256"
        }
      ],
      "name": "approve",
      "outputs": [],
      "stateMutability": "nonpayable",
      "type": "function"
    },
    {
      "inputs": [
        {
          "internalType": "address",
          "name": "owner",
          "type": "address"
        }
      ],
      "name": "balanceOf",
      "outputs": [
        {
          "internalType": "uint256",
          "name": "",
          "type": "uint256"
        }
      ],
      "stateMutability": "view",
      "type": "function"
    },
    {
      "inputs": [
        {
          "internalType": "uint256",
          "name": "tokenID",
          "type": "uint256"
        }
      ],
      "name": "buy",
      "outputs": [],
      "stateMutability": "payable",
      "type": "function"
    },
    {
      "inputs": [
        {
          "internalType": "uint256",
          "name": "price",
          "type": "uint256"
        },
        {
          "internalType": "string",
          "name": "tokenURI",
          "type": "string"
        }
      ],
      "name": "createToken",
      "outputs": [
        {
          "internalType": "uint256",
          "name": "",
          "type": "uint256"
        }
      ],
      "stateMutability": "nonpayable",
      "type": "function"
    },
    {
      "inputs": [],
      "name": "getAllNFTs",
      "outputs": [
        {
          "components": [
            {
              "internalType": "uint256",
              "name": "tokenId",
              "type": "uint256"
            },
            {
              "internalType": "address payable",
              "name": "owner",
              "type": "address"
            },
            {
              "internalType": "address payable",
              "name": "seller",
              "type": "address"
            },
            {
              "internalType": "address payable",
              "name": "artist",
              "type": "address"
            },
            {
              "internalType": "uint256",
              "name": "price",
              "type": "uint256"
            },
            {
              "internalType": "bool",
              "name": "listed",
              "type": "bool"
            }
          ],
          "internalType": "struct NFT.ListedNFT[]",
          "name": "",
          "type": "tuple[]"
        }
      ],
      "stateMutability": "view",
      "type": "function"
    },
    {
      "inputs": [
        {
          "internalType": "uint256",
          "name": "tokenId",
          "type": "uint256"
        }
      ],
      "name": "getApproved",
      "outputs": [
        {
          "internalType": "address",
          "name": "",
          "type": "address"
        }
      ],
      "stateMutability": "view",
      "type": "function"
    },
    {
      "inputs": [],
      "name": "getListingPrice",
      "outputs": [
        {
          "internalType": "uint256",
          "name": "",
          "type": "uint256"
        }
      ],
      "stateMutability": "view",
      "type": "function"
    },
    {
      "inputs": [],
      "name": "getMyNFTs",
      "outputs": [
        {
          "components": [
            {
              "internalType": "uint256",
              "name": "tokenId",
              "type": "uint256"
            },
            {
              "internalType": "address payable",
              "name": "owner",
              "type": "address"
            },
            {
              "internalType": "address payable",
              "name": "seller",
              "type": "address"
            },
            {
              "internalType": "address payable",
              "name": "artist",
              "type": "address"
            },
            {
              "internalType": "uint256",
              "name": "price",
              "type": "uint256"
            },
            {
              "internalType": "bool",
              "name": "listed",
              "type": "bool"
            }
          ],
          "internalType": "struct NFT.ListedNFT[]",
          "name": "",
          "type": "tuple[]"
        }
      ],
      "stateMutability": "view",
      "type": "function"
    },
    {
      "inputs": [
        {
          "internalType": "address",
          "name": "owner",
          "type": "address"
        },
        {
          "internalType": "address",
          "name": "operator",
          "type": "address"
        }
      ],
      "name": "isApprovedForAll",
      "outputs": [
        {
          "internalType": "bool",
          "name": "",
          "type": "bool"
        }
      ],
      "stateMutability": "view",
      "type": "function"
    },
    {
      "inputs": [
        {
          "internalType": "uint256",
          "name": "tokenID",
          "type": "uint256"
        },
        {
          "internalType": "uint256",
          "name": "price",
          "type": "uint256"
        }
      ],
      "name": "listToken",
      "outputs": [],
      "stateMutability": "nonpayable",
      "type": "function"
    },
    {
      "inputs": [],
      "name": "name",
      "outputs": [
        {
          "internalType": "string",
          "name": "",
          "type": "string"
        }
      ],
      "stateMutability": "view",
      "type": "function"
    },
    {
      "inputs": [
        {
          "internalType": "uint256",
          "name": "tokenId",
          "type": "uint256"
        }
      ],
      "name": "ownerOf",
      "outputs": [
        {
          "internalType": "address",
          "name": "",
          "type": "address"
        }
      ],
      "stateMutability": "view",
      "type": "function"
    },
    {
      "inputs": [
        {
          "internalType": "address",
          "name": "from",
          "type": "address"
        },
        {
          "internalType": "address",
          "name": "to",
          "type": "address"
        },
        {
          "internalType": "uint256",
          "name": "tokenId",
          "type": "uint256"
        }
      ],
      "name": "safeTransferFrom",
      "outputs": [],
      "stateMutability": "nonpayable",
      "type": "function"
    },
    {
      "inputs": [
        {
          "internalType": "address",
          "name": "from",
          "type": "address"
        },
        {
          "internalType": "address",
          "name": "to",
          "type": "address"
        },
        {
          "internalType": "uint256",
          "name": "tokenId",
          "type": "uint256"
        },
        {
          "internalType": "bytes",
          "name": "data",
          "type": "bytes"
        }
      ],
      "name": "safeTransferFrom",
      "outputs": [],
      "stateMutability": "nonpayable",
      "type": "function"
    },
    {
      "inputs": [
        {
          "internalType": "address",
          "name": "operator",
          "type": "address"
        },
        {
          "internalType": "bool",
          "name": "approved",
          "type": "bool"
        }
      ],
      "name": "setApprovalForAll",
      "outputs": [],
      "stateMutability": "nonpayable",
      "type": "function"
    },
    {
      "inputs": [
        {
          "internalType": "bytes4",
          "name": "interfaceId",
          "type": "bytes4"
        }
      ],
      "name": "supportsInterface",
      "outputs": [
        {
          "internalType": "bool",
          "name": "",
          "type": "bool"
        }
      ],
      "stateMutability": "view",
      "type": "function"
    },
    {
      "inputs": [],
      "name": "symbol",
      "outputs": [
        {
          "internalType": "string",
          "name": "",
          "type": "string"
        }
      ],
      "stateMutability": "view",
      "type": "function"
    },
    {
      "inputs": [
        {
          "internalType": "uint256",
          "name": "tokenId",
          "type": "uint256"
        }
      ],
      "name": "tokenURI",
      "outputs": [
        {
          "internalType": "string",
          "name": "",
          "type": "string"
        }
      ],
      "stateMutability": "view",
      "type": "function"
    },
    {
      "inputs": [
        {
          "internalType": "address",
          "name": "from",
          "type": "address"
        },
        {
          "internalType": "address",
          "name": "to",
          "type": "address"
        },
        {
          "internalType": "uint256",
          "name": "tokenId",
          "type": "uint256"
        }
      ],
      "name": "transferFrom",
      "outputs": [],
      "stateMutability": "nonpayable",
      "type": "function"
    },
    {
      "inputs": [
        {
          "internalType": "uint256",
          "name": "tokenID",
          "type": "uint256"
        }
      ],
      "name": "unlistToken",
      "outputs": [],
      "stateMutability": "nonpayable",
      "type": "function"
    }
  ],
  "bytecode": "0x6080604052662386f26fc100006009553480156200001c57600080fd5b506040518060400160405280600981526020017f4d75736963204e465400000000000000000000000000000000000000000000008152506040518060400160405280600381526020017f4d465400000000000000000000000000000000000000000000000000000000008152508160009080519060200190620000a192919062000104565b508060019080519060200190620000ba92919062000104565b50505033600760006101000a81548173ffffffffffffffffffffffffffffffffffffffff021916908373ffffffffffffffffffffffffffffffffffffffff16021790555062000219565b8280546200011290620001e3565b90600052602060002090601f01602090048101928262000136576000855562000182565b82601f106200015157805160ff191683800117855562000182565b8280016001018555821562000182579182015b828111156200018157825182559160200191906001019062000164565b5b50905062000191919062000195565b5090565b5b80821115620001b057600081600090555060010162000196565b5090565b7f4e487b7100000000000000000000000000000000000000000000000000000000600052602260045260246000fd5b60006002820490506001821680620001fc57607f821691505b60208210811415620002135762000212620001b4565b5b50919050565b613d2a80620002296000396000f3fe60806040526004361061011f5760003560e01c806370a08231116100a0578063b88d4fde11610064578063b88d4fde146103f7578063c87b56dd14610420578063d96a094a1461045d578063e0391b0914610479578063e985e9c5146104a45761011f565b806370a082311461031457806375c1631d1461035157806395d89b411461037a578063a22cb465146103a5578063ad3a358c146103ce5761011f565b80631b3efe85116100e75780631b3efe851461021d57806323b872dd1461025a57806342842e0e14610283578063629cb2e4146102ac5780636352211e146102d75761011f565b806301ffc9a71461012457806306fdde0314610161578063081812fc1461018c578063095ea7b3146101c957806312e85585146101f2575b600080fd5b34801561013057600080fd5b5061014b600480360381019061014691906129c2565b6104e1565b6040516101589190612a0a565b60405180910390f35b34801561016d57600080fd5b506101766105c3565b6040516101839190612abe565b60405180910390f35b34801561019857600080fd5b506101b360048036038101906101ae9190612b16565b610655565b6040516101c09190612b84565b60405180910390f35b3480156101d557600080fd5b506101f060048036038101906101eb9190612bcb565b61069b565b005b3480156101fe57600080fd5b506102076107b3565b6040516102149190612c1a565b60405180910390f35b34801561022957600080fd5b50610244600480360381019061023f9190612d6a565b6107bd565b6040516102519190612c1a565b60405180910390f35b34801561026657600080fd5b50610281600480360381019061027c9190612dc6565b610842565b005b34801561028f57600080fd5b506102aa60048036038101906102a59190612dc6565b6108a2565b005b3480156102b857600080fd5b506102c16108c2565b6040516102ce9190612f82565b60405180910390f35b3480156102e357600080fd5b506102fe60048036038101906102f99190612b16565b610bfa565b60405161030b9190612b84565b60405180910390f35b34801561032057600080fd5b5061033b60048036038101906103369190612fa4565b610c81565b6040516103489190612c1a565b60405180910390f35b34801561035d57600080fd5b5061037860048036038101906103739190612fd1565b610d39565b005b34801561038657600080fd5b5061038f610f93565b60405161039c9190612abe565b60405180910390f35b3480156103b157600080fd5b506103cc60048036038101906103c7919061303d565b611025565b005b3480156103da57600080fd5b506103f560048036038101906103f09190612b16565b61103b565b005b34801561040357600080fd5b5061041e6004803603810190610419919061311e565b61111c565b005b34801561042c57600080fd5b5061044760048036038101906104429190612b16565b61117e565b6040516104549190612abe565b60405180910390f35b61047760048036038101906104729190612b16565b611291565b005b34801561048557600080fd5b5061048e611555565b60405161049b9190612f82565b60405180910390f35b3480156104b057600080fd5b506104cb60048036038101906104c691906131a1565b61176e565b6040516104d89190612a0a565b60405180910390f35b60007f80ac58cd000000000000000000000000000000000000000000000000000000007bffffffffffffffffffffffffffffffffffffffffffffffffffffffff1916827bffffffffffffffffffffffffffffffffffffffffffffffffffffffff191614806105ac57507f5b5e139f000000000000000000000000000000000000000000000000000000007bffffffffffffffffffffffffffffffffffffffffffffffffffffffff1916827bffffffffffffffffffffffffffffffffffffffffffffffffffffffff1916145b806105bc57506105bb82611802565b5b9050919050565b6060600080546105d290613210565b80601f01602080910402602001604051908101604052809291908181526020018280546105fe90613210565b801561064b5780601f106106205761010080835404028352916020019161064b565b820191906000526020600020905b81548152906001019060200180831161062e57829003601f168201915b5050505050905090565b60006106608261186c565b6004600083815260200190815260200160002060009054906101000a900473ffffffffffffffffffffffffffffffffffffffff169050919050565b60006106a682610bfa565b90508073ffffffffffffffffffffffffffffffffffffffff168373ffffffffffffffffffffffffffffffffffffffff161415610717576040517f08c379a000000000000000000000000000000000000000000000000000000000815260040161070e906132b4565b60405180910390fd5b8073ffffffffffffffffffffffffffffffffffffffff166107366118b7565b73ffffffffffffffffffffffffffffffffffffffff16148061076557506107648161075f6118b7565b61176e565b5b6107a4576040517f08c379a000000000000000000000000000000000000000000000000000000000815260040161079b90613346565b60405180910390fd5b6107ae83836118bf565b505050565b6000600954905090565b600080831015610802576040517f08c379a00000000000000000000000000000000000000000000000000000000081526004016107f9906133b2565b60405180910390fd5b61080c6008611978565b6000610818600861198e565b9050610824338261199c565b61082e81846119ba565b6108388185610d39565b8091505092915050565b61085361084d6118b7565b82611a2e565b610892576040517f08c379a000000000000000000000000000000000000000000000000000000000815260040161088990613444565b60405180910390fd5b61089d838383611ac3565b505050565b6108bd8383836040518060200160405280600081525061111c565b505050565b606060006108d0600861198e565b905060008060005b83811015610979573373ffffffffffffffffffffffffffffffffffffffff16600a60006001846109089190613493565b815260200190815260200160002060020160009054906101000a900473ffffffffffffffffffffffffffffffffffffffff1673ffffffffffffffffffffffffffffffffffffffff161415610966576001836109639190613493565b92505b8080610971906134e9565b9150506108d8565b5060008267ffffffffffffffff81111561099657610995612c3f565b5b6040519080825280602002602001820160405280156109cf57816020015b6109bc612839565b8152602001906001900390816109b45790505b50905060005b84811015610bef573373ffffffffffffffffffffffffffffffffffffffff16600a6000600184610a059190613493565b815260200190815260200160002060020160009054906101000a900473ffffffffffffffffffffffffffffffffffffffff1673ffffffffffffffffffffffffffffffffffffffff161415610bdc57600a6000600183610a649190613493565b81526020019081526020016000206040518060c0016040529081600082015481526020016001820160009054906101000a900473ffffffffffffffffffffffffffffffffffffffff1673ffffffffffffffffffffffffffffffffffffffff1673ffffffffffffffffffffffffffffffffffffffff1681526020016002820160009054906101000a900473ffffffffffffffffffffffffffffffffffffffff1673ffffffffffffffffffffffffffffffffffffffff1673ffffffffffffffffffffffffffffffffffffffff1681526020016003820160009054906101000a900473ffffffffffffffffffffffffffffffffffffffff1673ffffffffffffffffffffffffffffffffffffffff1673ffffffffffffffffffffffffffffffffffffffff168152602001600482015481526020016005820160009054906101000a900460ff161515151581525050828481518110610bc157610bc0613532565b5b6020026020010181905250600183610bd99190613493565b92505b8080610be7906134e9565b9150506109d5565b508094505050505090565b600080610c0683611dbd565b9050600073ffffffffffffffffffffffffffffffffffffffff168173ffffffffffffffffffffffffffffffffffffffff161415610c78576040517f08c379a0000000000000000000000000000000000000000000000000000000008152600401610c6f906135ad565b60405180910390fd5b80915050919050565b60008073ffffffffffffffffffffffffffffffffffffffff168273ffffffffffffffffffffffffffffffffffffffff161415610cf2576040517f08c379a0000000000000000000000000000000000000000000000000000000008152600401610ce99061363f565b60405180910390fd5b600360008373ffffffffffffffffffffffffffffffffffffffff1673ffffffffffffffffffffffffffffffffffffffff168152602001908152602001600020549050919050565b600073ffffffffffffffffffffffffffffffffffffffff16600a600084815260200190815260200160002060010160009054906101000a900473ffffffffffffffffffffffffffffffffffffffff1673ffffffffffffffffffffffffffffffffffffffff1614610df25780600a6000848152602001908152602001600020600401819055506001600a600084815260200190815260200160002060050160006101000a81548160ff021916908315150217905550610f84565b6040518060c001604052808381526020013073ffffffffffffffffffffffffffffffffffffffff1681526020013373ffffffffffffffffffffffffffffffffffffffff1681526020013373ffffffffffffffffffffffffffffffffffffffff16815260200182815260200160011515815250600a60008481526020019081526020016000206000820151816000015560208201518160010160006101000a81548173ffffffffffffffffffffffffffffffffffffffff021916908373ffffffffffffffffffffffffffffffffffffffff16021790555060408201518160020160006101000a81548173ffffffffffffffffffffffffffffffffffffffff021916908373ffffffffffffffffffffffffffffffffffffffff16021790555060608201518160030160006101000a81548173ffffffffffffffffffffffffffffffffffffffff021916908373ffffffffffffffffffffffffffffffffffffffff1602179055506080820151816004015560a08201518160050160006101000a81548160ff0219169083151502179055509050505b610f8f333084611ac3565b5050565b606060018054610fa290613210565b80601f0160208091040260200160405190810160405280929190818152602001828054610fce90613210565b801561101b5780601f10610ff05761010080835404028352916020019161101b565b820191906000526020600020905b815481529060010190602001808311610ffe57829003601f168201915b5050505050905090565b6110376110306118b7565b8383611dfa565b5050565b3373ffffffffffffffffffffffffffffffffffffffff16600a600083815260200190815260200160002060020160009054906101000a900473ffffffffffffffffffffffffffffffffffffffff1673ffffffffffffffffffffffffffffffffffffffff16146110df576040517f08c379a00000000000000000000000000000000000000000000000000000000081526004016110d6906136ab565b60405180910390fd5b6000600a600083815260200190815260200160002060050160006101000a81548160ff021916908315150217905550611119303383611ac3565b50565b61112d6111276118b7565b83611a2e565b61116c576040517f08c379a000000000000000000000000000000000000000000000000000000000815260040161116390613444565b60405180910390fd5b61117884848484611f67565b50505050565b60606111898261186c565b60006006600084815260200190815260200160002080546111a990613210565b80601f01602080910402602001604051908101604052809291908181526020018280546111d590613210565b80156112225780601f106111f757610100808354040283529160200191611222565b820191906000526020600020905b81548152906001019060200180831161120557829003601f168201915b505050505090506000611233611fc3565b905060008151141561124957819250505061128c565b60008251111561127e578082604051602001611266929190613707565b6040516020818303038152906040529250505061128c565b61128784611fda565b925050505b919050565b6000600a6000838152602001908152602001600020600401549050600954816112ba9190613493565b34146112fb576040517f08c379a00000000000000000000000000000000000000000000000000000000081526004016112f290613777565b60405180910390fd5b6000600a600084815260200190815260200160002060020160009054906101000a900473ffffffffffffffffffffffffffffffffffffffff1690506000600a600085815260200190815260200160002060030160009054906101000a900473ffffffffffffffffffffffffffffffffffffffff16905033600a600086815260200190815260200160002060020160006101000a81548173ffffffffffffffffffffffffffffffffffffffff021916908373ffffffffffffffffffffffffffffffffffffffff1602179055506000600a600086815260200190815260200160002060050160006101000a81548160ff021916908315150217905550611400303386611ac3565b61140a308561069b565b600760009054906101000a900473ffffffffffffffffffffffffffffffffffffffff1673ffffffffffffffffffffffffffffffffffffffff166108fc6009549081150290604051600060405180830381858888f19350505050158015611474573d6000803e3d6000fd5b506000600954346114859190613797565b90508273ffffffffffffffffffffffffffffffffffffffff166108fc6114c8600a6114ba60098661204290919063ffffffff16565b61205890919063ffffffff16565b9081150290604051600060405180830381858888f193505050501580156114f3573d6000803e3d6000fd5b508173ffffffffffffffffffffffffffffffffffffffff166108fc611522600a8461205890919063ffffffff16565b9081150290604051600060405180830381858888f1935050505015801561154d573d6000803e3d6000fd5b505050505050565b60606000611563600861198e565b90506000808267ffffffffffffffff81111561158257611581612c3f565b5b6040519080825280602002602001820160405280156115bb57816020015b6115a8612839565b8152602001906001900390816115a05790505b50905060005b8381101561176457600a60006001836115da9190613493565b81526020019081526020016000206040518060c0016040529081600082015481526020016001820160009054906101000a900473ffffffffffffffffffffffffffffffffffffffff1673ffffffffffffffffffffffffffffffffffffffff1673ffffffffffffffffffffffffffffffffffffffff1681526020016002820160009054906101000a900473ffffffffffffffffffffffffffffffffffffffff1673ffffffffffffffffffffffffffffffffffffffff1673ffffffffffffffffffffffffffffffffffffffff1681526020016003820160009054906101000a900473ffffffffffffffffffffffffffffffffffffffff1673ffffffffffffffffffffffffffffffffffffffff1673ffffffffffffffffffffffffffffffffffffffff168152602001600482015481526020016005820160009054906101000a900460ff16151515158152505082848151811061173757611736613532565b5b602002602001018190525060018361174f9190613493565b9250808061175c906134e9565b9150506115c1565b5080935050505090565b6000600560008473ffffffffffffffffffffffffffffffffffffffff1673ffffffffffffffffffffffffffffffffffffffff16815260200190815260200160002060008373ffffffffffffffffffffffffffffffffffffffff1673ffffffffffffffffffffffffffffffffffffffff16815260200190815260200160002060009054906101000a900460ff16905092915050565b60007f01ffc9a7000000000000000000000000000000000000000000000000000000007bffffffffffffffffffffffffffffffffffffffffffffffffffffffff1916827bffffffffffffffffffffffffffffffffffffffffffffffffffffffff1916149050919050565b6118758161206e565b6118b4576040517f08c379a00000000000000000000000000000000000000000000000000000000081526004016118ab906135ad565b60405180910390fd5b50565b600033905090565b816004600083815260200190815260200160002060006101000a81548173ffffffffffffffffffffffffffffffffffffffff021916908373ffffffffffffffffffffffffffffffffffffffff160217905550808273ffffffffffffffffffffffffffffffffffffffff1661193283610bfa565b73ffffffffffffffffffffffffffffffffffffffff167f8c5be1e5ebec7d5bd14f71427d1e84f3dd0314c0f7b2291e5b200ac8c7c3b92560405160405180910390a45050565b6001816000016000828254019250508190555050565b600081600001549050919050565b6119b68282604051806020016040528060008152506120af565b5050565b6119c38261206e565b611a02576040517f08c379a00000000000000000000000000000000000000000000000000000000081526004016119f99061383d565b60405180910390fd5b80600660008481526020019081526020016000209080519060200190611a299291906128b3565b505050565b600080611a3a83610bfa565b90508073ffffffffffffffffffffffffffffffffffffffff168473ffffffffffffffffffffffffffffffffffffffff161480611a7c5750611a7b818561176e565b5b80611aba57508373ffffffffffffffffffffffffffffffffffffffff16611aa284610655565b73ffffffffffffffffffffffffffffffffffffffff16145b91505092915050565b8273ffffffffffffffffffffffffffffffffffffffff16611ae382610bfa565b73ffffffffffffffffffffffffffffffffffffffff1614611b39576040517f08c379a0000000000000000000000000000000000000000000000000000000008152600401611b30906138cf565b60405180910390fd5b600073ffffffffffffffffffffffffffffffffffffffff168273ffffffffffffffffffffffffffffffffffffffff161415611ba9576040517f08c379a0000000000000000000000000000000000000000000000000000000008152600401611ba090613961565b60405180910390fd5b611bb6838383600161210a565b8273ffffffffffffffffffffffffffffffffffffffff16611bd682610bfa565b73ffffffffffffffffffffffffffffffffffffffff1614611c2c576040517f08c379a0000000000000000000000000000000000000000000000000000000008152600401611c23906138cf565b60405180910390fd5b6004600082815260200190815260200160002060006101000a81549073ffffffffffffffffffffffffffffffffffffffff02191690556001600360008573ffffffffffffffffffffffffffffffffffffffff1673ffffffffffffffffffffffffffffffffffffffff168152602001908152602001600020600082825403925050819055506001600360008473ffffffffffffffffffffffffffffffffffffffff1673ffffffffffffffffffffffffffffffffffffffff16815260200190815260200160002060008282540192505081905550816002600083815260200190815260200160002060006101000a81548173ffffffffffffffffffffffffffffffffffffffff021916908373ffffffffffffffffffffffffffffffffffffffff160217905550808273ffffffffffffffffffffffffffffffffffffffff168473ffffffffffffffffffffffffffffffffffffffff167fddf252ad1be2c89b69c2b068fc378daa952ba7f163c4a11628f55a4df523b3ef60405160405180910390a4611db88383836001612230565b505050565b60006002600083815260200190815260200160002060009054906101000a900473ffffffffffffffffffffffffffffffffffffffff169050919050565b8173ffffffffffffffffffffffffffffffffffffffff168373ffffffffffffffffffffffffffffffffffffffff161415611e69576040517f08c379a0000000000000000000000000000000000000000000000000000000008152600401611e60906139cd565b60405180910390fd5b80600560008573ffffffffffffffffffffffffffffffffffffffff1673ffffffffffffffffffffffffffffffffffffffff16815260200190815260200160002060008473ffffffffffffffffffffffffffffffffffffffff1673ffffffffffffffffffffffffffffffffffffffff16815260200190815260200160002060006101000a81548160ff0219169083151502179055508173ffffffffffffffffffffffffffffffffffffffff168373ffffffffffffffffffffffffffffffffffffffff167f17307eab39ab6107e8899845ad3d59bd9653f200f220920489ca2b5937696c3183604051611f5a9190612a0a565b60405180910390a3505050565b611f72848484611ac3565b611f7e84848484612236565b611fbd576040517f08c379a0000000000000000000000000000000000000000000000000000000008152600401611fb490613a5f565b60405180910390fd5b50505050565b606060405180602001604052806000815250905090565b6060611fe58261186c565b6000611fef611fc3565b9050600081511161200f576040518060200160405280600081525061203a565b80612019846123cd565b60405160200161202a929190613707565b6040516020818303038152906040525b915050919050565b600081836120509190613a7f565b905092915050565b600081836120669190613b08565b905092915050565b60008073ffffffffffffffffffffffffffffffffffffffff1661209083611dbd565b73ffffffffffffffffffffffffffffffffffffffff1614159050919050565b6120b983836124a5565b6120c66000848484612236565b612105576040517f08c379a00000000000000000000000000000000000000000000000000000000081526004016120fc90613a5f565b60405180910390fd5b505050565b600181111561222a57600073ffffffffffffffffffffffffffffffffffffffff168473ffffffffffffffffffffffffffffffffffffffff161461219e5780600360008673ffffffffffffffffffffffffffffffffffffffff1673ffffffffffffffffffffffffffffffffffffffff16815260200190815260200160002060008282546121969190613797565b925050819055505b600073ffffffffffffffffffffffffffffffffffffffff168373ffffffffffffffffffffffffffffffffffffffff16146122295780600360008573ffffffffffffffffffffffffffffffffffffffff1673ffffffffffffffffffffffffffffffffffffffff16815260200190815260200160002060008282546122219190613493565b925050819055505b5b50505050565b50505050565b60006122578473ffffffffffffffffffffffffffffffffffffffff166126c3565b156123c0578373ffffffffffffffffffffffffffffffffffffffff1663150b7a026122806118b7565b8786866040518563ffffffff1660e01b81526004016122a29493929190613b8e565b602060405180830381600087803b1580156122bc57600080fd5b505af19250505080156122ed57506040513d601f19601f820116820180604052508101906122ea9190613bef565b60015b612370573d806000811461231d576040519150601f19603f3d011682016040523d82523d6000602084013e612322565b606091505b50600081511415612368576040517f08c379a000000000000000000000000000000000000000000000000000000000815260040161235f90613a5f565b60405180910390fd5b805181602001fd5b63150b7a0260e01b7bffffffffffffffffffffffffffffffffffffffffffffffffffffffff1916817bffffffffffffffffffffffffffffffffffffffffffffffffffffffff1916149150506123c5565b600190505b949350505050565b6060600060016123dc846126e6565b01905060008167ffffffffffffffff8111156123fb576123fa612c3f565b5b6040519080825280601f01601f19166020018201604052801561242d5781602001600182028036833780820191505090505b509050600082602001820190505b60011561249a578080600190039150507f3031323334353637383961626364656600000000000000000000000000000000600a86061a8153600a858161248457612483613ad9565b5b04945060008514156124955761249a565b61243b565b819350505050919050565b600073ffffffffffffffffffffffffffffffffffffffff168273ffffffffffffffffffffffffffffffffffffffff161415612515576040517f08c379a000000000000000000000000000000000000000000000000000000000815260040161250c90613c68565b60405180910390fd5b61251e8161206e565b1561255e576040517f08c379a000000000000000000000000000000000000000000000000000000000815260040161255590613cd4565b60405180910390fd5b61256c60008383600161210a565b6125758161206e565b156125b5576040517f08c379a00000000000000000000000000000000000000000000000000000000081526004016125ac90613cd4565b60405180910390fd5b6001600360008473ffffffffffffffffffffffffffffffffffffffff1673ffffffffffffffffffffffffffffffffffffffff16815260200190815260200160002060008282540192505081905550816002600083815260200190815260200160002060006101000a81548173ffffffffffffffffffffffffffffffffffffffff021916908373ffffffffffffffffffffffffffffffffffffffff160217905550808273ffffffffffffffffffffffffffffffffffffffff16600073ffffffffffffffffffffffffffffffffffffffff167fddf252ad1be2c89b69c2b068fc378daa952ba7f163c4a11628f55a4df523b3ef60405160405180910390a46126bf600083836001612230565b5050565b6000808273ffffffffffffffffffffffffffffffffffffffff163b119050919050565b600080600090507a184f03e93ff9f4daa797ed6e38ed64bf6a1f0100000000000000008310612744577a184f03e93ff9f4daa797ed6e38ed64bf6a1f010000000000000000838161273a57612739613ad9565b5b0492506040810190505b6d04ee2d6d415b85acef81000000008310612781576d04ee2d6d415b85acef8100000000838161277757612776613ad9565b5b0492506020810190505b662386f26fc1000083106127b057662386f26fc1000083816127a6576127a5613ad9565b5b0492506010810190505b6305f5e10083106127d9576305f5e10083816127cf576127ce613ad9565b5b0492506008810190505b61271083106127fe5761271083816127f4576127f3613ad9565b5b0492506004810190505b60648310612821576064838161281757612816613ad9565b5b0492506002810190505b600a8310612830576001810190505b80915050919050565b6040518060c0016040528060008152602001600073ffffffffffffffffffffffffffffffffffffffff168152602001600073ffffffffffffffffffffffffffffffffffffffff168152602001600073ffffffffffffffffffffffffffffffffffffffff168152602001600081526020016000151581525090565b8280546128bf90613210565b90600052602060002090601f0160209004810192826128e15760008555612928565b82601f106128fa57805160ff1916838001178555612928565b82800160010185558215612928579182015b8281111561292757825182559160200191906001019061290c565b5b5090506129359190612939565b5090565b5b8082111561295257600081600090555060010161293a565b5090565b6000604051905090565b600080fd5b600080fd5b60007fffffffff0000000000000000000000000000000000000000000000000000000082169050919050565b61299f8161296a565b81146129aa57600080fd5b50565b6000813590506129bc81612996565b92915050565b6000602082840312156129d8576129d7612960565b5b60006129e6848285016129ad565b91505092915050565b60008115159050919050565b612a04816129ef565b82525050565b6000602082019050612a1f60008301846129fb565b92915050565b600081519050919050565b600082825260208201905092915050565b60005b83811015612a5f578082015181840152602081019050612a44565b83811115612a6e576000848401525b50505050565b6000601f19601f8301169050919050565b6000612a9082612a25565b612a9a8185612a30565b9350612aaa818560208601612a41565b612ab381612a74565b840191505092915050565b60006020820190508181036000830152612ad88184612a85565b905092915050565b6000819050919050565b612af381612ae0565b8114612afe57600080fd5b50565b600081359050612b1081612aea565b92915050565b600060208284031215612b2c57612b2b612960565b5b6000612b3a84828501612b01565b91505092915050565b600073ffffffffffffffffffffffffffffffffffffffff82169050919050565b6000612b6e82612b43565b9050919050565b612b7e81612b63565b82525050565b6000602082019050612b996000830184612b75565b92915050565b612ba881612b63565b8114612bb357600080fd5b50565b600081359050612bc581612b9f565b92915050565b60008060408385031215612be257612be1612960565b5b6000612bf085828601612bb6565b9250506020612c0185828601612b01565b9150509250929050565b612c1481612ae0565b82525050565b6000602082019050612c2f6000830184612c0b565b92915050565b600080fd5b600080fd5b7f4e487b7100000000000000000000000000000000000000000000000000000000600052604160045260246000fd5b612c7782612a74565b810181811067ffffffffffffffff82111715612c9657612c95612c3f565b5b80604052505050565b6000612ca9612956565b9050612cb58282612c6e565b919050565b600067ffffffffffffffff821115612cd557612cd4612c3f565b5b612cde82612a74565b9050602081019050919050565b82818337600083830152505050565b6000612d0d612d0884612cba565b612c9f565b905082815260208101848484011115612d2957612d28612c3a565b5b612d34848285612ceb565b509392505050565b600082601f830112612d5157612d50612c35565b5b8135612d61848260208601612cfa565b91505092915050565b60008060408385031215612d8157612d80612960565b5b6000612d8f85828601612b01565b925050602083013567ffffffffffffffff811115612db057612daf612965565b5b612dbc85828601612d3c565b9150509250929050565b600080600060608486031215612ddf57612dde612960565b5b6000612ded86828701612bb6565b9350506020612dfe86828701612bb6565b9250506040612e0f86828701612b01565b9150509250925092565b600081519050919050565b600082825260208201905092915050565b6000819050602082019050919050565b612e4e81612ae0565b82525050565b6000612e5f82612b43565b9050919050565b612e6f81612e54565b82525050565b612e7e816129ef565b82525050565b60c082016000820151612e9a6000850182612e45565b506020820151612ead6020850182612e66565b506040820151612ec06040850182612e66565b506060820151612ed36060850182612e66565b506080820151612ee66080850182612e45565b5060a0820151612ef960a0850182612e75565b50505050565b6000612f0b8383612e84565b60c08301905092915050565b6000602082019050919050565b6000612f2f82612e19565b612f398185612e24565b9350612f4483612e35565b8060005b83811015612f75578151612f5c8882612eff565b9750612f6783612f17565b925050600181019050612f48565b5085935050505092915050565b60006020820190508181036000830152612f9c8184612f24565b905092915050565b600060208284031215612fba57612fb9612960565b5b6000612fc884828501612bb6565b91505092915050565b60008060408385031215612fe857612fe7612960565b5b6000612ff685828601612b01565b925050602061300785828601612b01565b9150509250929050565b61301a816129ef565b811461302557600080fd5b50565b60008135905061303781613011565b92915050565b6000806040838503121561305457613053612960565b5b600061306285828601612bb6565b925050602061307385828601613028565b9150509250929050565b600067ffffffffffffffff82111561309857613097612c3f565b5b6130a182612a74565b9050602081019050919050565b60006130c16130bc8461307d565b612c9f565b9050828152602081018484840111156130dd576130dc612c3a565b5b6130e8848285612ceb565b509392505050565b600082601f83011261310557613104612c35565b5b81356131158482602086016130ae565b91505092915050565b6000806000806080858703121561313857613137612960565b5b600061314687828801612bb6565b945050602061315787828801612bb6565b935050604061316887828801612b01565b925050606085013567ffffffffffffffff81111561318957613188612965565b5b613195878288016130f0565b91505092959194509250565b600080604083850312156131b8576131b7612960565b5b60006131c685828601612bb6565b92505060206131d785828601612bb6565b9150509250929050565b7f4e487b7100000000000000000000000000000000000000000000000000000000600052602260045260246000fd5b6000600282049050600182168061322857607f821691505b6020821081141561323c5761323b6131e1565b5b50919050565b7f4552433732313a20617070726f76616c20746f2063757272656e74206f776e6560008201527f7200000000000000000000000000000000000000000000000000000000000000602082015250565b600061329e602183612a30565b91506132a982613242565b604082019050919050565b600060208201905081810360008301526132cd81613291565b9050919050565b7f4552433732313a20617070726f76652063616c6c6572206973206e6f7420746f60008201527f6b656e206f776e6572206f7220617070726f76656420666f7220616c6c000000602082015250565b6000613330603d83612a30565b915061333b826132d4565b604082019050919050565b6000602082019050818103600083015261335f81613323565b9050919050565b7f506c6561736520656e74657220612076616c69642076616c7565000000000000600082015250565b600061339c601a83612a30565b91506133a782613366565b602082019050919050565b600060208201905081810360008301526133cb8161338f565b9050919050565b7f4552433732313a2063616c6c6572206973206e6f7420746f6b656e206f776e6560008201527f72206f7220617070726f76656400000000000000000000000000000000000000602082015250565b600061342e602d83612a30565b9150613439826133d2565b604082019050919050565b6000602082019050818103600083015261345d81613421565b9050919050565b7f4e487b7100000000000000000000000000000000000000000000000000000000600052601160045260246000fd5b600061349e82612ae0565b91506134a983612ae0565b9250827fffffffffffffffffffffffffffffffffffffffffffffffffffffffffffffffff038211156134de576134dd613464565b5b828201905092915050565b60006134f482612ae0565b91507fffffffffffffffffffffffffffffffffffffffffffffffffffffffffffffffff82141561352757613526613464565b5b600182019050919050565b7f4e487b7100000000000000000000000000000000000000000000000000000000600052603260045260246000fd5b7f4552433732313a20696e76616c696420746f6b656e2049440000000000000000600082015250565b6000613597601883612a30565b91506135a282613561565b602082019050919050565b600060208201905081810360008301526135c68161358a565b9050919050565b7f4552433732313a2061646472657373207a65726f206973206e6f74206120766160008201527f6c6964206f776e65720000000000000000000000000000000000000000000000602082015250565b6000613629602983612a30565b9150613634826135cd565b604082019050919050565b600060208201905081810360008301526136588161361c565b9050919050565b7f596f7520617265206e6f7420746865206f776e65720000000000000000000000600082015250565b6000613695601583612a30565b91506136a08261365f565b602082019050919050565b600060208201905081810360008301526136c481613688565b9050919050565b600081905092915050565b60006136e182612a25565b6136eb81856136cb565b93506136fb818560208601612a41565b80840191505092915050565b600061371382856136d6565b915061371f82846136d6565b91508190509392505050565b7f4e6f7420656e6f75676820657468657200000000000000000000000000000000600082015250565b6000613761601083612a30565b915061376c8261372b565b602082019050919050565b6000602082019050818103600083015261379081613754565b9050919050565b60006137a282612ae0565b91506137ad83612ae0565b9250828210156137c0576137bf613464565b5b828203905092915050565b7f45524337323155524953746f726167653a2055524920736574206f66206e6f6e60008201527f6578697374656e7420746f6b656e000000000000000000000000000000000000602082015250565b6000613827602e83612a30565b9150613832826137cb565b604082019050919050565b600060208201905081810360008301526138568161381a565b9050919050565b7f4552433732313a207472616e736665722066726f6d20696e636f72726563742060008201527f6f776e6572000000000000000000000000000000000000000000000000000000602082015250565b60006138b9602583612a30565b91506138c48261385d565b604082019050919050565b600060208201905081810360008301526138e8816138ac565b9050919050565b7f4552433732313a207472616e7366657220746f20746865207a65726f2061646460008201527f7265737300000000000000000000000000000000000000000000000000000000602082015250565b600061394b602483612a30565b9150613956826138ef565b604082019050919050565b6000602082019050818103600083015261397a8161393e565b9050919050565b7f4552433732313a20617070726f766520746f2063616c6c657200000000000000600082015250565b60006139b7601983612a30565b91506139c282613981565b602082019050919050565b600060208201905081810360008301526139e6816139aa565b9050919050565b7f4552433732313a207472616e7366657220746f206e6f6e20455243373231526560008201527f63656976657220696d706c656d656e7465720000000000000000000000000000602082015250565b6000613a49603283612a30565b9150613a54826139ed565b604082019050919050565b60006020820190508181036000830152613a7881613a3c565b9050919050565b6000613a8a82612ae0565b9150613a9583612ae0565b9250817fffffffffffffffffffffffffffffffffffffffffffffffffffffffffffffffff0483118215151615613ace57613acd613464565b5b828202905092915050565b7f4e487b7100000000000000000000000000000000000000000000000000000000600052601260045260246000fd5b6000613b1382612ae0565b9150613b1e83612ae0565b925082613b2e57613b2d613ad9565b5b828204905092915050565b600081519050919050565b600082825260208201905092915050565b6000613b6082613b39565b613b6a8185613b44565b9350613b7a818560208601612a41565b613b8381612a74565b840191505092915050565b6000608082019050613ba36000830187612b75565b613bb06020830186612b75565b613bbd6040830185612c0b565b8181036060830152613bcf8184613b55565b905095945050505050565b600081519050613be981612996565b92915050565b600060208284031215613c0557613c04612960565b5b6000613c1384828501613bda565b91505092915050565b7f4552433732313a206d696e7420746f20746865207a65726f2061646472657373600082015250565b6000613c52602083612a30565b9150613c5d82613c1c565b602082019050919050565b60006020820190508181036000830152613c8181613c45565b9050919050565b7f4552433732313a20746f6b656e20616c7265616479206d696e74656400000000600082015250565b6000613cbe601c83612a30565b9150613cc982613c88565b602082019050919050565b60006020820190508181036000830152613ced81613cb1565b905091905056fea26469706673582212205a01f7f251450c5f5524b17eb01b5cc38e6ca4fa975c043f6eaf30adca986e7064736f6c63430008090033",
  "linkReferences": {},
  "deployedLinkReferences": {}
}