{
  "_format": "hh-sol-artifact-1",
  "contractName": "NFT",
  "sourceName": "contracts/NFT.sol",
  "abi": [
    {
      "inputs": [],
      "stateMutability": "nonpayable",
      "type": "constructor"
    },
    {
      "anonymous": false,
      "inputs": [
        {
          "indexed": true,
          "internalType": "address",
          "name": "owner",
          "type": "address"
        },
        {
          "indexed": true,
          "internalType": "address",
          "name": "approved",
          "type": "address"
        },
        {
          "indexed": true,
          "internalType": "uint256",
          "name": "tokenId",
          "type": "uint256"
        }
      ],
      "name": "Approval",
      "type": "event"
    },
    {
      "anonymous": false,
      "inputs": [
        {
          "indexed": true,
          "internalType": "address",
          "name": "owner",
          "type": "address"
        },
        {
          "indexed": true,
          "internalType": "address",
          "name": "operator",
          "type": "address"
        },
        {
          "indexed": false,
          "internalType": "bool",
          "name": "approved",
          "type": "bool"
        }
      ],
      "name": "ApprovalForAll",
      "type": "event"
    },
    {
      "anonymous": false,
      "inputs": [
        {
          "indexed": true,
          "internalType": "address",
          "name": "from",
          "type": "address"
        },
        {
          "indexed": true,
          "internalType": "address",
          "name": "to",
          "type": "address"
        },
        {
          "indexed": true,
          "internalType": "uint256",
          "name": "tokenId",
          "type": "uint256"
        }
      ],
      "name": "Transfer",
      "type": "event"
    },
    {
      "inputs": [
        {
          "internalType": "address",
          "name": "to",
          "type": "address"
        },
        {
          "internalType": "uint256",
          "name": "tokenId",
          "type": "uint256"
        }
      ],
      "name": "approve",
      "outputs": [],
      "stateMutability": "nonpayable",
      "type": "function"
    },
    {
      "inputs": [
        {
          "internalType": "address",
          "name": "owner",
          "type": "address"
        }
      ],
      "name": "balanceOf",
      "outputs": [
        {
          "internalType": "uint256",
          "name": "",
          "type": "uint256"
        }
      ],
      "stateMutability": "view",
      "type": "function"
    },
    {
      "inputs": [
        {
          "internalType": "uint256",
          "name": "tokenID",
          "type": "uint256"
        }
      ],
      "name": "buy",
      "outputs": [],
      "stateMutability": "payable",
      "type": "function"
    },
    {
      "inputs": [
        {
          "internalType": "uint256",
          "name": "price",
          "type": "uint256"
        },
        {
          "internalType": "string",
          "name": "tokenURI",
          "type": "string"
        }
      ],
      "name": "createToken",
      "outputs": [
        {
          "internalType": "uint256",
          "name": "",
          "type": "uint256"
        }
      ],
      "stateMutability": "nonpayable",
      "type": "function"
    },
    {
      "inputs": [],
      "name": "getAllNFTs",
      "outputs": [
        {
          "components": [
            {
              "internalType": "uint256",
              "name": "tokenId",
              "type": "uint256"
            },
            {
              "internalType": "address payable",
              "name": "owner",
              "type": "address"
            },
            {
              "internalType": "address payable",
              "name": "seller",
              "type": "address"
            },
            {
              "internalType": "address payable",
              "name": "artist",
              "type": "address"
            },
            {
              "internalType": "uint256",
              "name": "price",
              "type": "uint256"
            },
            {
              "internalType": "bool",
              "name": "listed",
              "type": "bool"
            }
          ],
          "internalType": "struct NFT.ListedNFT[]",
          "name": "",
          "type": "tuple[]"
        }
      ],
      "stateMutability": "view",
      "type": "function"
    },
    {
      "inputs": [
        {
          "internalType": "uint256",
          "name": "tokenId",
          "type": "uint256"
        }
      ],
      "name": "getApproved",
      "outputs": [
        {
          "internalType": "address",
          "name": "",
          "type": "address"
        }
      ],
      "stateMutability": "view",
      "type": "function"
    },
    {
      "inputs": [],
      "name": "getListingPrice",
      "outputs": [
        {
          "internalType": "uint256",
          "name": "",
          "type": "uint256"
        }
      ],
      "stateMutability": "view",
      "type": "function"
    },
    {
      "inputs": [],
      "name": "getMyNFTs",
      "outputs": [
        {
          "components": [
            {
              "internalType": "uint256",
              "name": "tokenId",
              "type": "uint256"
            },
            {
              "internalType": "address payable",
              "name": "owner",
              "type": "address"
            },
            {
              "internalType": "address payable",
              "name": "seller",
              "type": "address"
            },
            {
              "internalType": "address payable",
              "name": "artist",
              "type": "address"
            },
            {
              "internalType": "uint256",
              "name": "price",
              "type": "uint256"
            },
            {
              "internalType": "bool",
              "name": "listed",
              "type": "bool"
            }
          ],
          "internalType": "struct NFT.ListedNFT[]",
          "name": "",
          "type": "tuple[]"
        }
      ],
      "stateMutability": "view",
      "type": "function"
    },
    {
      "inputs": [
        {
          "internalType": "address",
          "name": "owner",
          "type": "address"
        },
        {
          "internalType": "address",
          "name": "operator",
          "type": "address"
        }
      ],
      "name": "isApprovedForAll",
      "outputs": [
        {
          "internalType": "bool",
          "name": "",
          "type": "bool"
        }
      ],
      "stateMutability": "view",
      "type": "function"
    },
    {
      "inputs": [
        {
          "internalType": "uint256",
          "name": "tokenID",
          "type": "uint256"
        },
        {
          "internalType": "uint256",
          "name": "price",
          "type": "uint256"
        }
      ],
      "name": "listToken",
      "outputs": [],
      "stateMutability": "nonpayable",
      "type": "function"
    },
    {
      "inputs": [],
      "name": "name",
      "outputs": [
        {
          "internalType": "string",
          "name": "",
          "type": "string"
        }
      ],
      "stateMutability": "view",
      "type": "function"
    },
    {
      "inputs": [
        {
          "internalType": "uint256",
          "name": "tokenId",
          "type": "uint256"
        }
      ],
      "name": "ownerOf",
      "outputs": [
        {
          "internalType": "address",
          "name": "",
          "type": "address"
        }
      ],
      "stateMutability": "view",
      "type": "function"
    },
    {
      "inputs": [
        {
          "internalType": "address",
          "name": "from",
          "type": "address"
        },
        {
          "internalType": "address",
          "name": "to",
          "type": "address"
        },
        {
          "internalType": "uint256",
          "name": "tokenId",
          "type": "uint256"
        }
      ],
      "name": "safeTransferFrom",
      "outputs": [],
      "stateMutability": "nonpayable",
      "type": "function"
    },
    {
      "inputs": [
        {
          "internalType": "address",
          "name": "from",
          "type": "address"
        },
        {
          "internalType": "address",
          "name": "to",
          "type": "address"
        },
        {
          "internalType": "uint256",
          "name": "tokenId",
          "type": "uint256"
        },
        {
          "internalType": "bytes",
          "name": "data",
          "type": "bytes"
        }
      ],
      "name": "safeTransferFrom",
      "outputs": [],
      "stateMutability": "nonpayable",
      "type": "function"
    },
    {
      "inputs": [
        {
          "internalType": "address",
          "name": "operator",
          "type": "address"
        },
        {
          "internalType": "bool",
          "name": "approved",
          "type": "bool"
        }
      ],
      "name": "setApprovalForAll",
      "outputs": [],
      "stateMutability": "nonpayable",
      "type": "function"
    },
    {
      "inputs": [
        {
          "internalType": "bytes4",
          "name": "interfaceId",
          "type": "bytes4"
        }
      ],
      "name": "supportsInterface",
      "outputs": [
        {
          "internalType": "bool",
          "name": "",
          "type": "bool"
        }
      ],
      "stateMutability": "view",
      "type": "function"
    },
    {
      "inputs": [],
      "name": "symbol",
      "outputs": [
        {
          "internalType": "string",
          "name": "",
          "type": "string"
        }
      ],
      "stateMutability": "view",
      "type": "function"
    },
    {
      "inputs": [
        {
          "internalType": "uint256",
          "name": "tokenId",
          "type": "uint256"
        }
      ],
      "name": "tokenURI",
      "outputs": [
        {
          "internalType": "string",
          "name": "",
          "type": "string"
        }
      ],
      "stateMutability": "view",
      "type": "function"
    },
    {
      "inputs": [
        {
          "internalType": "address",
          "name": "from",
          "type": "address"
        },
        {
          "internalType": "address",
          "name": "to",
          "type": "address"
        },
        {
          "internalType": "uint256",
          "name": "tokenId",
          "type": "uint256"
        }
      ],
      "name": "transferFrom",
      "outputs": [],
      "stateMutability": "nonpayable",
      "type": "function"
    },
    {
      "inputs": [
        {
          "internalType": "uint256",
          "name": "tokenID",
          "type": "uint256"
        }
      ],
      "name": "unlistToken",
      "outputs": [],
      "stateMutability": "nonpayable",
      "type": "function"
    }
  ],
  "bytecode": "0x6080604052662386f26fc100006009553480156200001c57600080fd5b506040518060400160405280600981526020017f4d75736963204e465400000000000000000000000000000000000000000000008152506040518060400160405280600381526020017f4d4654000000000000000000000000000000000000000000000000000000000081525081600090816200009a919062000370565b508060019081620000ac919062000370565b50505033600760006101000a81548173ffffffffffffffffffffffffffffffffffffffff021916908373ffffffffffffffffffffffffffffffffffffffff16021790555062000457565b600081519050919050565b7f4e487b7100000000000000000000000000000000000000000000000000000000600052604160045260246000fd5b7f4e487b7100000000000000000000000000000000000000000000000000000000600052602260045260246000fd5b600060028204905060018216806200017857607f821691505b6020821081036200018e576200018d62000130565b5b50919050565b60008190508160005260206000209050919050565b60006020601f8301049050919050565b600082821b905092915050565b600060088302620001f87fffffffffffffffffffffffffffffffffffffffffffffffffffffffffffffffff82620001b9565b620002048683620001b9565b95508019841693508086168417925050509392505050565b6000819050919050565b6000819050919050565b6000620002516200024b62000245846200021c565b62000226565b6200021c565b9050919050565b6000819050919050565b6200026d8362000230565b620002856200027c8262000258565b848454620001c6565b825550505050565b600090565b6200029c6200028d565b620002a981848462000262565b505050565b5b81811015620002d157620002c560008262000292565b600181019050620002af565b5050565b601f8211156200032057620002ea8162000194565b620002f584620001a9565b8101602085101562000305578190505b6200031d6200031485620001a9565b830182620002ae565b50505b505050565b600082821c905092915050565b6000620003456000198460080262000325565b1980831691505092915050565b600062000360838362000332565b9150826002028217905092915050565b6200037b82620000f6565b67ffffffffffffffff81111562000397576200039662000101565b5b620003a382546200015f565b620003b0828285620002d5565b600060209050601f831160018114620003e85760008415620003d3578287015190505b620003df858262000352565b8655506200044f565b601f198416620003f88662000194565b60005b828110156200042257848901518255600182019150602085019450602081019050620003fb565b868310156200044257848901516200043e601f89168262000332565b8355505b6001600288020188555050505b505050505050565b613e9680620004676000396000f3fe60806040526004361061011f5760003560e01c806370a08231116100a0578063b88d4fde11610064578063b88d4fde146103f7578063c87b56dd14610420578063d96a094a1461045d578063e0391b0914610479578063e985e9c5146104a45761011f565b806370a082311461031457806375c1631d1461035157806395d89b411461037a578063a22cb465146103a5578063ad3a358c146103ce5761011f565b80631b3efe85116100e75780631b3efe851461021d57806323b872dd1461025a57806342842e0e14610283578063629cb2e4146102ac5780636352211e146102d75761011f565b806301ffc9a71461012457806306fdde0314610161578063081812fc1461018c578063095ea7b3146101c957806312e85585146101f2575b600080fd5b34801561013057600080fd5b5061014b600480360381019061014691906128f5565b6104e1565b604051610158919061293d565b60405180910390f35b34801561016d57600080fd5b506101766105c3565b60405161018391906129e8565b60405180910390f35b34801561019857600080fd5b506101b360048036038101906101ae9190612a40565b610655565b6040516101c09190612aae565b60405180910390f35b3480156101d557600080fd5b506101f060048036038101906101eb9190612af5565b61069b565b005b3480156101fe57600080fd5b506102076107b2565b6040516102149190612b44565b60405180910390f35b34801561022957600080fd5b50610244600480360381019061023f9190612c94565b6107bc565b6040516102519190612b44565b60405180910390f35b34801561026657600080fd5b50610281600480360381019061027c9190612cf0565b610841565b005b34801561028f57600080fd5b506102aa60048036038101906102a59190612cf0565b6108a1565b005b3480156102b857600080fd5b506102c16108c1565b6040516102ce9190612eac565b60405180910390f35b3480156102e357600080fd5b506102fe60048036038101906102f99190612a40565b610bf7565b60405161030b9190612aae565b60405180910390f35b34801561032057600080fd5b5061033b60048036038101906103369190612ece565b610c7d565b6040516103489190612b44565b60405180910390f35b34801561035d57600080fd5b5061037860048036038101906103739190612efb565b610d34565b005b34801561038657600080fd5b5061038f610f8e565b60405161039c91906129e8565b60405180910390f35b3480156103b157600080fd5b506103cc60048036038101906103c79190612f67565b611020565b005b3480156103da57600080fd5b506103f560048036038101906103f09190612a40565b611036565b005b34801561040357600080fd5b5061041e60048036038101906104199190613048565b611117565b005b34801561042c57600080fd5b5061044760048036038101906104429190612a40565b611179565b60405161045491906129e8565b60405180910390f35b61047760048036038101906104729190612a40565b61128b565b005b34801561048557600080fd5b5061048e61154f565b60405161049b9190612eac565b60405180910390f35b3480156104b057600080fd5b506104cb60048036038101906104c691906130cb565b611768565b6040516104d8919061293d565b60405180910390f35b60007f80ac58cd000000000000000000000000000000000000000000000000000000007bffffffffffffffffffffffffffffffffffffffffffffffffffffffff1916827bffffffffffffffffffffffffffffffffffffffffffffffffffffffff191614806105ac57507f5b5e139f000000000000000000000000000000000000000000000000000000007bffffffffffffffffffffffffffffffffffffffffffffffffffffffff1916827bffffffffffffffffffffffffffffffffffffffffffffffffffffffff1916145b806105bc57506105bb826117fc565b5b9050919050565b6060600080546105d29061313a565b80601f01602080910402602001604051908101604052809291908181526020018280546105fe9061313a565b801561064b5780601f106106205761010080835404028352916020019161064b565b820191906000526020600020905b81548152906001019060200180831161062e57829003601f168201915b5050505050905090565b600061066082611866565b6004600083815260200190815260200160002060009054906101000a900473ffffffffffffffffffffffffffffffffffffffff169050919050565b60006106a682610bf7565b90508073ffffffffffffffffffffffffffffffffffffffff168373ffffffffffffffffffffffffffffffffffffffff1603610716576040517f08c379a000000000000000000000000000000000000000000000000000000000815260040161070d906131dd565b60405180910390fd5b8073ffffffffffffffffffffffffffffffffffffffff166107356118b1565b73ffffffffffffffffffffffffffffffffffffffff16148061076457506107638161075e6118b1565b611768565b5b6107a3576040517f08c379a000000000000000000000000000000000000000000000000000000000815260040161079a9061326f565b60405180910390fd5b6107ad83836118b9565b505050565b6000600954905090565b600080831015610801576040517f08c379a00000000000000000000000000000000000000000000000000000000081526004016107f8906132db565b60405180910390fd5b61080b6008611972565b60006108176008611988565b90506108233382611996565b61082d81846119b4565b6108378185610d34565b8091505092915050565b61085261084c6118b1565b82611a21565b610891576040517f08c379a00000000000000000000000000000000000000000000000000000000081526004016108889061336d565b60405180910390fd5b61089c838383611ab6565b505050565b6108bc83838360405180602001604052806000815250611117565b505050565b606060006108cf6008611988565b905060008060005b83811015610977573373ffffffffffffffffffffffffffffffffffffffff16600a600060018461090791906133bc565b815260200190815260200160002060020160009054906101000a900473ffffffffffffffffffffffffffffffffffffffff1673ffffffffffffffffffffffffffffffffffffffff16036109645760018361096191906133bc565b92505b808061096f906133f0565b9150506108d7565b5060008267ffffffffffffffff81111561099457610993612b69565b5b6040519080825280602002602001820160405280156109cd57816020015b6109ba61280f565b8152602001906001900390816109b25790505b50905060005b84811015610bec573373ffffffffffffffffffffffffffffffffffffffff16600a6000600184610a0391906133bc565b815260200190815260200160002060020160009054906101000a900473ffffffffffffffffffffffffffffffffffffffff1673ffffffffffffffffffffffffffffffffffffffff1603610bd957600a6000600183610a6191906133bc565b81526020019081526020016000206040518060c0016040529081600082015481526020016001820160009054906101000a900473ffffffffffffffffffffffffffffffffffffffff1673ffffffffffffffffffffffffffffffffffffffff1673ffffffffffffffffffffffffffffffffffffffff1681526020016002820160009054906101000a900473ffffffffffffffffffffffffffffffffffffffff1673ffffffffffffffffffffffffffffffffffffffff1673ffffffffffffffffffffffffffffffffffffffff1681526020016003820160009054906101000a900473ffffffffffffffffffffffffffffffffffffffff1673ffffffffffffffffffffffffffffffffffffffff1673ffffffffffffffffffffffffffffffffffffffff168152602001600482015481526020016005820160009054906101000a900460ff161515151581525050828481518110610bbe57610bbd613438565b5b6020026020010181905250600183610bd691906133bc565b92505b8080610be4906133f0565b9150506109d3565b508094505050505090565b600080610c0383611daf565b9050600073ffffffffffffffffffffffffffffffffffffffff168173ffffffffffffffffffffffffffffffffffffffff1603610c74576040517f08c379a0000000000000000000000000000000000000000000000000000000008152600401610c6b906134b3565b60405180910390fd5b80915050919050565b60008073ffffffffffffffffffffffffffffffffffffffff168273ffffffffffffffffffffffffffffffffffffffff1603610ced576040517f08c379a0000000000000000000000000000000000000000000000000000000008152600401610ce490613545565b60405180910390fd5b600360008373ffffffffffffffffffffffffffffffffffffffff1673ffffffffffffffffffffffffffffffffffffffff168152602001908152602001600020549050919050565b600073ffffffffffffffffffffffffffffffffffffffff16600a600084815260200190815260200160002060010160009054906101000a900473ffffffffffffffffffffffffffffffffffffffff1673ffffffffffffffffffffffffffffffffffffffff1614610ded5780600a6000848152602001908152602001600020600401819055506001600a600084815260200190815260200160002060050160006101000a81548160ff021916908315150217905550610f7f565b6040518060c001604052808381526020013073ffffffffffffffffffffffffffffffffffffffff1681526020013373ffffffffffffffffffffffffffffffffffffffff1681526020013373ffffffffffffffffffffffffffffffffffffffff16815260200182815260200160011515815250600a60008481526020019081526020016000206000820151816000015560208201518160010160006101000a81548173ffffffffffffffffffffffffffffffffffffffff021916908373ffffffffffffffffffffffffffffffffffffffff16021790555060408201518160020160006101000a81548173ffffffffffffffffffffffffffffffffffffffff021916908373ffffffffffffffffffffffffffffffffffffffff16021790555060608201518160030160006101000a81548173ffffffffffffffffffffffffffffffffffffffff021916908373ffffffffffffffffffffffffffffffffffffffff1602179055506080820151816004015560a08201518160050160006101000a81548160ff0219169083151502179055509050505b610f8a333084611ab6565b5050565b606060018054610f9d9061313a565b80601f0160208091040260200160405190810160405280929190818152602001828054610fc99061313a565b80156110165780601f10610feb57610100808354040283529160200191611016565b820191906000526020600020905b815481529060010190602001808311610ff957829003601f168201915b5050505050905090565b61103261102b6118b1565b8383611dec565b5050565b3373ffffffffffffffffffffffffffffffffffffffff16600a600083815260200190815260200160002060020160009054906101000a900473ffffffffffffffffffffffffffffffffffffffff1673ffffffffffffffffffffffffffffffffffffffff16146110da576040517f08c379a00000000000000000000000000000000000000000000000000000000081526004016110d1906135b1565b60405180910390fd5b6000600a600083815260200190815260200160002060050160006101000a81548160ff021916908315150217905550611114303383611ab6565b50565b6111286111226118b1565b83611a21565b611167576040517f08c379a000000000000000000000000000000000000000000000000000000000815260040161115e9061336d565b60405180910390fd5b61117384848484611f58565b50505050565b606061118482611866565b60006006600084815260200190815260200160002080546111a49061313a565b80601f01602080910402602001604051908101604052809291908181526020018280546111d09061313a565b801561121d5780601f106111f25761010080835404028352916020019161121d565b820191906000526020600020905b81548152906001019060200180831161120057829003601f168201915b50505050509050600061122e611fb4565b90506000815103611243578192505050611286565b60008251111561127857808260405160200161126092919061360d565b60405160208183030381529060405292505050611286565b61128184611fcb565b925050505b919050565b6000600a6000838152602001908152602001600020600401549050600954816112b491906133bc565b34146112f5576040517f08c379a00000000000000000000000000000000000000000000000000000000081526004016112ec9061367d565b60405180910390fd5b6000600a600084815260200190815260200160002060020160009054906101000a900473ffffffffffffffffffffffffffffffffffffffff1690506000600a600085815260200190815260200160002060030160009054906101000a900473ffffffffffffffffffffffffffffffffffffffff16905033600a600086815260200190815260200160002060020160006101000a81548173ffffffffffffffffffffffffffffffffffffffff021916908373ffffffffffffffffffffffffffffffffffffffff1602179055506000600a600086815260200190815260200160002060050160006101000a81548160ff0219169083151502179055506113fa303386611ab6565b611404308561069b565b600760009054906101000a900473ffffffffffffffffffffffffffffffffffffffff1673ffffffffffffffffffffffffffffffffffffffff166108fc6009549081150290604051600060405180830381858888f1935050505015801561146e573d6000803e3d6000fd5b5060006009543461147f919061369d565b90508273ffffffffffffffffffffffffffffffffffffffff166108fc6114c2600a6114b460098661203390919063ffffffff16565b61204990919063ffffffff16565b9081150290604051600060405180830381858888f193505050501580156114ed573d6000803e3d6000fd5b508173ffffffffffffffffffffffffffffffffffffffff166108fc61151c600a8461204990919063ffffffff16565b9081150290604051600060405180830381858888f19350505050158015611547573d6000803e3d6000fd5b505050505050565b6060600061155d6008611988565b90506000808267ffffffffffffffff81111561157c5761157b612b69565b5b6040519080825280602002602001820160405280156115b557816020015b6115a261280f565b81526020019060019003908161159a5790505b50905060005b8381101561175e57600a60006001836115d491906133bc565b81526020019081526020016000206040518060c0016040529081600082015481526020016001820160009054906101000a900473ffffffffffffffffffffffffffffffffffffffff1673ffffffffffffffffffffffffffffffffffffffff1673ffffffffffffffffffffffffffffffffffffffff1681526020016002820160009054906101000a900473ffffffffffffffffffffffffffffffffffffffff1673ffffffffffffffffffffffffffffffffffffffff1673ffffffffffffffffffffffffffffffffffffffff1681526020016003820160009054906101000a900473ffffffffffffffffffffffffffffffffffffffff1673ffffffffffffffffffffffffffffffffffffffff1673ffffffffffffffffffffffffffffffffffffffff168152602001600482015481526020016005820160009054906101000a900460ff16151515158152505082848151811061173157611730613438565b5b602002602001018190525060018361174991906133bc565b92508080611756906133f0565b9150506115bb565b5080935050505090565b6000600560008473ffffffffffffffffffffffffffffffffffffffff1673ffffffffffffffffffffffffffffffffffffffff16815260200190815260200160002060008373ffffffffffffffffffffffffffffffffffffffff1673ffffffffffffffffffffffffffffffffffffffff16815260200190815260200160002060009054906101000a900460ff16905092915050565b60007f01ffc9a7000000000000000000000000000000000000000000000000000000007bffffffffffffffffffffffffffffffffffffffffffffffffffffffff1916827bffffffffffffffffffffffffffffffffffffffffffffffffffffffff1916149050919050565b61186f8161205f565b6118ae576040517f08c379a00000000000000000000000000000000000000000000000000000000081526004016118a5906134b3565b60405180910390fd5b50565b600033905090565b816004600083815260200190815260200160002060006101000a81548173ffffffffffffffffffffffffffffffffffffffff021916908373ffffffffffffffffffffffffffffffffffffffff160217905550808273ffffffffffffffffffffffffffffffffffffffff1661192c83610bf7565b73ffffffffffffffffffffffffffffffffffffffff167f8c5be1e5ebec7d5bd14f71427d1e84f3dd0314c0f7b2291e5b200ac8c7c3b92560405160405180910390a45050565b6001816000016000828254019250508190555050565b600081600001549050919050565b6119b08282604051806020016040528060008152506120a0565b5050565b6119bd8261205f565b6119fc576040517f08c379a00000000000000000000000000000000000000000000000000000000081526004016119f390613743565b60405180910390fd5b80600660008481526020019081526020016000209081611a1c919061390f565b505050565b600080611a2d83610bf7565b90508073ffffffffffffffffffffffffffffffffffffffff168473ffffffffffffffffffffffffffffffffffffffff161480611a6f5750611a6e8185611768565b5b80611aad57508373ffffffffffffffffffffffffffffffffffffffff16611a9584610655565b73ffffffffffffffffffffffffffffffffffffffff16145b91505092915050565b8273ffffffffffffffffffffffffffffffffffffffff16611ad682610bf7565b73ffffffffffffffffffffffffffffffffffffffff1614611b2c576040517f08c379a0000000000000000000000000000000000000000000000000000000008152600401611b2390613a53565b60405180910390fd5b600073ffffffffffffffffffffffffffffffffffffffff168273ffffffffffffffffffffffffffffffffffffffff1603611b9b576040517f08c379a0000000000000000000000000000000000000000000000000000000008152600401611b9290613ae5565b60405180910390fd5b611ba883838360016120fb565b8273ffffffffffffffffffffffffffffffffffffffff16611bc882610bf7565b73ffffffffffffffffffffffffffffffffffffffff1614611c1e576040517f08c379a0000000000000000000000000000000000000000000000000000000008152600401611c1590613a53565b60405180910390fd5b6004600082815260200190815260200160002060006101000a81549073ffffffffffffffffffffffffffffffffffffffff02191690556001600360008573ffffffffffffffffffffffffffffffffffffffff1673ffffffffffffffffffffffffffffffffffffffff168152602001908152602001600020600082825403925050819055506001600360008473ffffffffffffffffffffffffffffffffffffffff1673ffffffffffffffffffffffffffffffffffffffff16815260200190815260200160002060008282540192505081905550816002600083815260200190815260200160002060006101000a81548173ffffffffffffffffffffffffffffffffffffffff021916908373ffffffffffffffffffffffffffffffffffffffff160217905550808273ffffffffffffffffffffffffffffffffffffffff168473ffffffffffffffffffffffffffffffffffffffff167fddf252ad1be2c89b69c2b068fc378daa952ba7f163c4a11628f55a4df523b3ef60405160405180910390a4611daa8383836001612221565b505050565b60006002600083815260200190815260200160002060009054906101000a900473ffffffffffffffffffffffffffffffffffffffff169050919050565b8173ffffffffffffffffffffffffffffffffffffffff168373ffffffffffffffffffffffffffffffffffffffff1603611e5a576040517f08c379a0000000000000000000000000000000000000000000000000000000008152600401611e5190613b51565b60405180910390fd5b80600560008573ffffffffffffffffffffffffffffffffffffffff1673ffffffffffffffffffffffffffffffffffffffff16815260200190815260200160002060008473ffffffffffffffffffffffffffffffffffffffff1673ffffffffffffffffffffffffffffffffffffffff16815260200190815260200160002060006101000a81548160ff0219169083151502179055508173ffffffffffffffffffffffffffffffffffffffff168373ffffffffffffffffffffffffffffffffffffffff167f17307eab39ab6107e8899845ad3d59bd9653f200f220920489ca2b5937696c3183604051611f4b919061293d565b60405180910390a3505050565b611f63848484611ab6565b611f6f84848484612227565b611fae576040517f08c379a0000000000000000000000000000000000000000000000000000000008152600401611fa590613be3565b60405180910390fd5b50505050565b606060405180602001604052806000815250905090565b6060611fd682611866565b6000611fe0611fb4565b90506000815111612000576040518060200160405280600081525061202b565b8061200a846123ae565b60405160200161201b92919061360d565b6040516020818303038152906040525b915050919050565b600081836120419190613c03565b905092915050565b600081836120579190613c74565b905092915050565b60008073ffffffffffffffffffffffffffffffffffffffff1661208183611daf565b73ffffffffffffffffffffffffffffffffffffffff1614159050919050565b6120aa838361247c565b6120b76000848484612227565b6120f6576040517f08c379a00000000000000000000000000000000000000000000000000000000081526004016120ed90613be3565b60405180910390fd5b505050565b600181111561221b57600073ffffffffffffffffffffffffffffffffffffffff168473ffffffffffffffffffffffffffffffffffffffff161461218f5780600360008673ffffffffffffffffffffffffffffffffffffffff1673ffffffffffffffffffffffffffffffffffffffff1681526020019081526020016000206000828254612187919061369d565b925050819055505b600073ffffffffffffffffffffffffffffffffffffffff168373ffffffffffffffffffffffffffffffffffffffff161461221a5780600360008573ffffffffffffffffffffffffffffffffffffffff1673ffffffffffffffffffffffffffffffffffffffff168152602001908152602001600020600082825461221291906133bc565b925050819055505b5b50505050565b50505050565b60006122488473ffffffffffffffffffffffffffffffffffffffff16612699565b156123a1578373ffffffffffffffffffffffffffffffffffffffff1663150b7a026122716118b1565b8786866040518563ffffffff1660e01b81526004016122939493929190613cfa565b6020604051808303816000875af19250505080156122cf57506040513d601f19601f820116820180604052508101906122cc9190613d5b565b60015b612351573d80600081146122ff576040519150601f19603f3d011682016040523d82523d6000602084013e612304565b606091505b506000815103612349576040517f08c379a000000000000000000000000000000000000000000000000000000000815260040161234090613be3565b60405180910390fd5b805181602001fd5b63150b7a0260e01b7bffffffffffffffffffffffffffffffffffffffffffffffffffffffff1916817bffffffffffffffffffffffffffffffffffffffffffffffffffffffff1916149150506123a6565b600190505b949350505050565b6060600060016123bd846126bc565b01905060008167ffffffffffffffff8111156123dc576123db612b69565b5b6040519080825280601f01601f19166020018201604052801561240e5781602001600182028036833780820191505090505b509050600082602001820190505b600115612471578080600190039150507f3031323334353637383961626364656600000000000000000000000000000000600a86061a8153600a858161246557612464613c45565b5b0494506000850361241c575b819350505050919050565b600073ffffffffffffffffffffffffffffffffffffffff168273ffffffffffffffffffffffffffffffffffffffff16036124eb576040517f08c379a00000000000000000000000000000000000000000000000000000000081526004016124e290613dd4565b60405180910390fd5b6124f48161205f565b15612534576040517f08c379a000000000000000000000000000000000000000000000000000000000815260040161252b90613e40565b60405180910390fd5b6125426000838360016120fb565b61254b8161205f565b1561258b576040517f08c379a000000000000000000000000000000000000000000000000000000000815260040161258290613e40565b60405180910390fd5b6001600360008473ffffffffffffffffffffffffffffffffffffffff1673ffffffffffffffffffffffffffffffffffffffff16815260200190815260200160002060008282540192505081905550816002600083815260200190815260200160002060006101000a81548173ffffffffffffffffffffffffffffffffffffffff021916908373ffffffffffffffffffffffffffffffffffffffff160217905550808273ffffffffffffffffffffffffffffffffffffffff16600073ffffffffffffffffffffffffffffffffffffffff167fddf252ad1be2c89b69c2b068fc378daa952ba7f163c4a11628f55a4df523b3ef60405160405180910390a4612695600083836001612221565b5050565b6000808273ffffffffffffffffffffffffffffffffffffffff163b119050919050565b600080600090507a184f03e93ff9f4daa797ed6e38ed64bf6a1f010000000000000000831061271a577a184f03e93ff9f4daa797ed6e38ed64bf6a1f01000000000000000083816127105761270f613c45565b5b0492506040810190505b6d04ee2d6d415b85acef81000000008310612757576d04ee2d6d415b85acef8100000000838161274d5761274c613c45565b5b0492506020810190505b662386f26fc10000831061278657662386f26fc10000838161277c5761277b613c45565b5b0492506010810190505b6305f5e10083106127af576305f5e10083816127a5576127a4613c45565b5b0492506008810190505b61271083106127d45761271083816127ca576127c9613c45565b5b0492506004810190505b606483106127f757606483816127ed576127ec613c45565b5b0492506002810190505b600a8310612806576001810190505b80915050919050565b6040518060c0016040528060008152602001600073ffffffffffffffffffffffffffffffffffffffff168152602001600073ffffffffffffffffffffffffffffffffffffffff168152602001600073ffffffffffffffffffffffffffffffffffffffff168152602001600081526020016000151581525090565b6000604051905090565b600080fd5b600080fd5b60007fffffffff0000000000000000000000000000000000000000000000000000000082169050919050565b6128d28161289d565b81146128dd57600080fd5b50565b6000813590506128ef816128c9565b92915050565b60006020828403121561290b5761290a612893565b5b6000612919848285016128e0565b91505092915050565b60008115159050919050565b61293781612922565b82525050565b6000602082019050612952600083018461292e565b92915050565b600081519050919050565b600082825260208201905092915050565b60005b83811015612992578082015181840152602081019050612977565b60008484015250505050565b6000601f19601f8301169050919050565b60006129ba82612958565b6129c48185612963565b93506129d4818560208601612974565b6129dd8161299e565b840191505092915050565b60006020820190508181036000830152612a0281846129af565b905092915050565b6000819050919050565b612a1d81612a0a565b8114612a2857600080fd5b50565b600081359050612a3a81612a14565b92915050565b600060208284031215612a5657612a55612893565b5b6000612a6484828501612a2b565b91505092915050565b600073ffffffffffffffffffffffffffffffffffffffff82169050919050565b6000612a9882612a6d565b9050919050565b612aa881612a8d565b82525050565b6000602082019050612ac36000830184612a9f565b92915050565b612ad281612a8d565b8114612add57600080fd5b50565b600081359050612aef81612ac9565b92915050565b60008060408385031215612b0c57612b0b612893565b5b6000612b1a85828601612ae0565b9250506020612b2b85828601612a2b565b9150509250929050565b612b3e81612a0a565b82525050565b6000602082019050612b596000830184612b35565b92915050565b600080fd5b600080fd5b7f4e487b7100000000000000000000000000000000000000000000000000000000600052604160045260246000fd5b612ba18261299e565b810181811067ffffffffffffffff82111715612bc057612bbf612b69565b5b80604052505050565b6000612bd3612889565b9050612bdf8282612b98565b919050565b600067ffffffffffffffff821115612bff57612bfe612b69565b5b612c088261299e565b9050602081019050919050565b82818337600083830152505050565b6000612c37612c3284612be4565b612bc9565b905082815260208101848484011115612c5357612c52612b64565b5b612c5e848285612c15565b509392505050565b600082601f830112612c7b57612c7a612b5f565b5b8135612c8b848260208601612c24565b91505092915050565b60008060408385031215612cab57612caa612893565b5b6000612cb985828601612a2b565b925050602083013567ffffffffffffffff811115612cda57612cd9612898565b5b612ce685828601612c66565b9150509250929050565b600080600060608486031215612d0957612d08612893565b5b6000612d1786828701612ae0565b9350506020612d2886828701612ae0565b9250506040612d3986828701612a2b565b9150509250925092565b600081519050919050565b600082825260208201905092915050565b6000819050602082019050919050565b612d7881612a0a565b82525050565b6000612d8982612a6d565b9050919050565b612d9981612d7e565b82525050565b612da881612922565b82525050565b60c082016000820151612dc46000850182612d6f565b506020820151612dd76020850182612d90565b506040820151612dea6040850182612d90565b506060820151612dfd6060850182612d90565b506080820151612e106080850182612d6f565b5060a0820151612e2360a0850182612d9f565b50505050565b6000612e358383612dae565b60c08301905092915050565b6000602082019050919050565b6000612e5982612d43565b612e638185612d4e565b9350612e6e83612d5f565b8060005b83811015612e9f578151612e868882612e29565b9750612e9183612e41565b925050600181019050612e72565b5085935050505092915050565b60006020820190508181036000830152612ec68184612e4e565b905092915050565b600060208284031215612ee457612ee3612893565b5b6000612ef284828501612ae0565b91505092915050565b60008060408385031215612f1257612f11612893565b5b6000612f2085828601612a2b565b9250506020612f3185828601612a2b565b9150509250929050565b612f4481612922565b8114612f4f57600080fd5b50565b600081359050612f6181612f3b565b92915050565b60008060408385031215612f7e57612f7d612893565b5b6000612f8c85828601612ae0565b9250506020612f9d85828601612f52565b9150509250929050565b600067ffffffffffffffff821115612fc257612fc1612b69565b5b612fcb8261299e565b9050602081019050919050565b6000612feb612fe684612fa7565b612bc9565b90508281526020810184848401111561300757613006612b64565b5b613012848285612c15565b509392505050565b600082601f83011261302f5761302e612b5f565b5b813561303f848260208601612fd8565b91505092915050565b6000806000806080858703121561306257613061612893565b5b600061307087828801612ae0565b945050602061308187828801612ae0565b935050604061309287828801612a2b565b925050606085013567ffffffffffffffff8111156130b3576130b2612898565b5b6130bf8782880161301a565b91505092959194509250565b600080604083850312156130e2576130e1612893565b5b60006130f085828601612ae0565b925050602061310185828601612ae0565b9150509250929050565b7f4e487b7100000000000000000000000000000000000000000000000000000000600052602260045260246000fd5b6000600282049050600182168061315257607f821691505b6020821081036131655761316461310b565b5b50919050565b7f4552433732313a20617070726f76616c20746f2063757272656e74206f776e6560008201527f7200000000000000000000000000000000000000000000000000000000000000602082015250565b60006131c7602183612963565b91506131d28261316b565b604082019050919050565b600060208201905081810360008301526131f6816131ba565b9050919050565b7f4552433732313a20617070726f76652063616c6c6572206973206e6f7420746f60008201527f6b656e206f776e6572206f7220617070726f76656420666f7220616c6c000000602082015250565b6000613259603d83612963565b9150613264826131fd565b604082019050919050565b600060208201905081810360008301526132888161324c565b9050919050565b7f506c6561736520656e74657220612076616c69642076616c7565000000000000600082015250565b60006132c5601a83612963565b91506132d08261328f565b602082019050919050565b600060208201905081810360008301526132f4816132b8565b9050919050565b7f4552433732313a2063616c6c6572206973206e6f7420746f6b656e206f776e6560008201527f72206f7220617070726f76656400000000000000000000000000000000000000602082015250565b6000613357602d83612963565b9150613362826132fb565b604082019050919050565b600060208201905081810360008301526133868161334a565b9050919050565b7f4e487b7100000000000000000000000000000000000000000000000000000000600052601160045260246000fd5b60006133c782612a0a565b91506133d283612a0a565b92508282019050808211156133ea576133e961338d565b5b92915050565b60006133fb82612a0a565b91507fffffffffffffffffffffffffffffffffffffffffffffffffffffffffffffffff820361342d5761342c61338d565b5b600182019050919050565b7f4e487b7100000000000000000000000000000000000000000000000000000000600052603260045260246000fd5b7f4552433732313a20696e76616c696420746f6b656e2049440000000000000000600082015250565b600061349d601883612963565b91506134a882613467565b602082019050919050565b600060208201905081810360008301526134cc81613490565b9050919050565b7f4552433732313a2061646472657373207a65726f206973206e6f74206120766160008201527f6c6964206f776e65720000000000000000000000000000000000000000000000602082015250565b600061352f602983612963565b915061353a826134d3565b604082019050919050565b6000602082019050818103600083015261355e81613522565b9050919050565b7f596f7520617265206e6f7420746865206f776e65720000000000000000000000600082015250565b600061359b601583612963565b91506135a682613565565b602082019050919050565b600060208201905081810360008301526135ca8161358e565b9050919050565b600081905092915050565b60006135e782612958565b6135f181856135d1565b9350613601818560208601612974565b80840191505092915050565b600061361982856135dc565b915061362582846135dc565b91508190509392505050565b7f4e6f7420656e6f75676820657468657200000000000000000000000000000000600082015250565b6000613667601083612963565b915061367282613631565b602082019050919050565b600060208201905081810360008301526136968161365a565b9050919050565b60006136a882612a0a565b91506136b383612a0a565b92508282039050818111156136cb576136ca61338d565b5b92915050565b7f45524337323155524953746f726167653a2055524920736574206f66206e6f6e60008201527f6578697374656e7420746f6b656e000000000000000000000000000000000000602082015250565b600061372d602e83612963565b9150613738826136d1565b604082019050919050565b6000602082019050818103600083015261375c81613720565b9050919050565b60008190508160005260206000209050919050565b60006020601f8301049050919050565b600082821b905092915050565b6000600883026137c57fffffffffffffffffffffffffffffffffffffffffffffffffffffffffffffffff82613788565b6137cf8683613788565b95508019841693508086168417925050509392505050565b6000819050919050565b600061380c61380761380284612a0a565b6137e7565b612a0a565b9050919050565b6000819050919050565b613826836137f1565b61383a61383282613813565b848454613795565b825550505050565b600090565b61384f613842565b61385a81848461381d565b505050565b5b8181101561387e57613873600082613847565b600181019050613860565b5050565b601f8211156138c35761389481613763565b61389d84613778565b810160208510156138ac578190505b6138c06138b885613778565b83018261385f565b50505b505050565b600082821c905092915050565b60006138e6600019846008026138c8565b1980831691505092915050565b60006138ff83836138d5565b9150826002028217905092915050565b61391882612958565b67ffffffffffffffff81111561393157613930612b69565b5b61393b825461313a565b613946828285613882565b600060209050601f8311600181146139795760008415613967578287015190505b61397185826138f3565b8655506139d9565b601f19841661398786613763565b60005b828110156139af5784890151825560018201915060208501945060208101905061398a565b868310156139cc57848901516139c8601f8916826138d5565b8355505b6001600288020188555050505b505050505050565b7f4552433732313a207472616e736665722066726f6d20696e636f72726563742060008201527f6f776e6572000000000000000000000000000000000000000000000000000000602082015250565b6000613a3d602583612963565b9150613a48826139e1565b604082019050919050565b60006020820190508181036000830152613a6c81613a30565b9050919050565b7f4552433732313a207472616e7366657220746f20746865207a65726f2061646460008201527f7265737300000000000000000000000000000000000000000000000000000000602082015250565b6000613acf602483612963565b9150613ada82613a73565b604082019050919050565b60006020820190508181036000830152613afe81613ac2565b9050919050565b7f4552433732313a20617070726f766520746f2063616c6c657200000000000000600082015250565b6000613b3b601983612963565b9150613b4682613b05565b602082019050919050565b60006020820190508181036000830152613b6a81613b2e565b9050919050565b7f4552433732313a207472616e7366657220746f206e6f6e20455243373231526560008201527f63656976657220696d706c656d656e7465720000000000000000000000000000602082015250565b6000613bcd603283612963565b9150613bd882613b71565b604082019050919050565b60006020820190508181036000830152613bfc81613bc0565b9050919050565b6000613c0e82612a0a565b9150613c1983612a0a565b9250828202613c2781612a0a565b91508282048414831517613c3e57613c3d61338d565b5b5092915050565b7f4e487b7100000000000000000000000000000000000000000000000000000000600052601260045260246000fd5b6000613c7f82612a0a565b9150613c8a83612a0a565b925082613c9a57613c99613c45565b5b828204905092915050565b600081519050919050565b600082825260208201905092915050565b6000613ccc82613ca5565b613cd68185613cb0565b9350613ce6818560208601612974565b613cef8161299e565b840191505092915050565b6000608082019050613d0f6000830187612a9f565b613d1c6020830186612a9f565b613d296040830185612b35565b8181036060830152613d3b8184613cc1565b905095945050505050565b600081519050613d55816128c9565b92915050565b600060208284031215613d7157613d70612893565b5b6000613d7f84828501613d46565b91505092915050565b7f4552433732313a206d696e7420746f20746865207a65726f2061646472657373600082015250565b6000613dbe602083612963565b9150613dc982613d88565b602082019050919050565b60006020820190508181036000830152613ded81613db1565b9050919050565b7f4552433732313a20746f6b656e20616c7265616479206d696e74656400000000600082015250565b6000613e2a601c83612963565b9150613e3582613df4565b602082019050919050565b60006020820190508181036000830152613e5981613e1d565b905091905056fea26469706673582212207b3a1899ad1874064bd22328774ee343ddd3c5d07521ecba3959a4e44297037264736f6c63430008110033",
  "linkReferences": {},
  "deployedLinkReferences": {}
}